{
	"Cyfrin/contracts/FundMe.sol": {
		"FundMe": {
			"abi": [
				{
					"inputs": [],
					"name": "fund",
					"outputs": [],
					"stateMutability": "payable",
					"type": "function"
				},
				{
					"inputs": [],
					"name": "getConversionRate",
					"outputs": [],
					"stateMutability": "nonpayable",
					"type": "function"
				},
				{
					"inputs": [],
					"name": "getPrice",
					"outputs": [],
					"stateMutability": "nonpayable",
					"type": "function"
				}
			],
			"devdoc": {
				"kind": "dev",
				"methods": {},
				"version": 1
			},
			"evm": {
				"assembly": "    /* \"Cyfrin/contracts/FundMe.sol\":179:633  contract FundMe{... */\n  mstore(0x40, 0x80)\n  callvalue\n  dup1\n  iszero\n  tag_1\n  jumpi\n  0x00\n  dup1\n  revert\ntag_1:\n  pop\n  dataSize(sub_0)\n  dup1\n  dataOffset(sub_0)\n  0x00\n  codecopy\n  0x00\n  return\nstop\n\nsub_0: assembly {\n        /* \"Cyfrin/contracts/FundMe.sol\":179:633  contract FundMe{... */\n      mstore(0x40, 0x80)\n      jumpi(tag_1, lt(calldatasize, 0x04))\n      shr(0xe0, calldataload(0x00))\n      dup1\n      0x98d5fdca\n      eq\n      tag_2\n      jumpi\n      dup1\n      0xb60d4288\n      eq\n      tag_3\n      jumpi\n      dup1\n      0xf36089ec\n      eq\n      tag_4\n      jumpi\n    tag_1:\n      0x00\n      dup1\n      revert\n        /* \"Cyfrin/contracts/FundMe.sol\":465:578  function getPrice() public {... */\n    tag_2:\n      callvalue\n      dup1\n      iszero\n      tag_5\n      jumpi\n      0x00\n      dup1\n      revert\n    tag_5:\n      pop\n      tag_6\n      tag_7\n      jump\t// in\n    tag_6:\n      stop\n        /* \"Cyfrin/contracts/FundMe.sol\":201:421  function fund() public payable {... */\n    tag_3:\n      tag_8\n      tag_9\n      jump\t// in\n    tag_8:\n      stop\n        /* \"Cyfrin/contracts/FundMe.sol\":584:630  function getConversionRate() public {... */\n    tag_4:\n      callvalue\n      dup1\n      iszero\n      tag_10\n      jumpi\n      0x00\n      dup1\n      revert\n    tag_10:\n      pop\n      tag_11\n      tag_12\n      jump\t// in\n    tag_11:\n      stop\n        /* \"Cyfrin/contracts/FundMe.sol\":465:578  function getPrice() public {... */\n    tag_7:\n      jump\t// out\n        /* \"Cyfrin/contracts/FundMe.sol\":201:421  function fund() public payable {... */\n    tag_9:\n        /* \"Cyfrin/contracts/FundMe.sol\":381:385  1e18 */\n      0x0de0b6b3a7640000\n        /* \"Cyfrin/contracts/FundMe.sol\":369:378  msg.value */\n      callvalue\n        /* \"Cyfrin/contracts/FundMe.sol\":369:385  msg.value > 1e18 */\n      gt\n        /* \"Cyfrin/contracts/FundMe.sol\":361:413  require(msg.value > 1e18, \"didn't sent enough ETHH\") */\n      tag_15\n      jumpi\n      mload(0x40)\n      0x08c379a000000000000000000000000000000000000000000000000000000000\n      dup2\n      mstore\n      0x04\n      add\n      tag_16\n      swap1\n      tag_17\n      jump\t// in\n    tag_16:\n      mload(0x40)\n      dup1\n      swap2\n      sub\n      swap1\n      revert\n    tag_15:\n        /* \"Cyfrin/contracts/FundMe.sol\":201:421  function fund() public payable {... */\n      jump\t// out\n        /* \"Cyfrin/contracts/FundMe.sol\":584:630  function getConversionRate() public {... */\n    tag_12:\n      jump\t// out\n        /* \"#utility.yul\":7:176   */\n    tag_19:\n        /* \"#utility.yul\":91:102   */\n      0x00\n        /* \"#utility.yul\":125:131   */\n      dup3\n        /* \"#utility.yul\":120:123   */\n      dup3\n        /* \"#utility.yul\":113:132   */\n      mstore\n        /* \"#utility.yul\":165:169   */\n      0x20\n        /* \"#utility.yul\":160:163   */\n      dup3\n        /* \"#utility.yul\":156:170   */\n      add\n        /* \"#utility.yul\":141:170   */\n      swap1\n      pop\n        /* \"#utility.yul\":7:176   */\n      swap3\n      swap2\n      pop\n      pop\n      jump\t// out\n        /* \"#utility.yul\":182:355   */\n    tag_20:\n        /* \"#utility.yul\":322:347   */\n      0x6469646e27742073656e7420656e6f7567682045544848000000000000000000\n        /* \"#utility.yul\":318:319   */\n      0x00\n        /* \"#utility.yul\":310:316   */\n      dup3\n        /* \"#utility.yul\":306:320   */\n      add\n        /* \"#utility.yul\":299:348   */\n      mstore\n        /* \"#utility.yul\":182:355   */\n      pop\n      jump\t// out\n        /* \"#utility.yul\":361:727   */\n    tag_21:\n        /* \"#utility.yul\":503:506   */\n      0x00\n        /* \"#utility.yul\":524:591   */\n      tag_26\n        /* \"#utility.yul\":588:590   */\n      0x17\n        /* \"#utility.yul\":583:586   */\n      dup4\n        /* \"#utility.yul\":524:591   */\n      tag_19\n      jump\t// in\n    tag_26:\n        /* \"#utility.yul\":517:591   */\n      swap2\n      pop\n        /* \"#utility.yul\":600:693   */\n      tag_27\n        /* \"#utility.yul\":689:692   */\n      dup3\n        /* \"#utility.yul\":600:693   */\n      tag_20\n      jump\t// in\n    tag_27:\n        /* \"#utility.yul\":718:720   */\n      0x20\n        /* \"#utility.yul\":713:716   */\n      dup3\n        /* \"#utility.yul\":709:721   */\n      add\n        /* \"#utility.yul\":702:721   */\n      swap1\n      pop\n        /* \"#utility.yul\":361:727   */\n      swap2\n      swap1\n      pop\n      jump\t// out\n        /* \"#utility.yul\":733:1152   */\n    tag_17:\n        /* \"#utility.yul\":899:903   */\n      0x00\n        /* \"#utility.yul\":937:939   */\n      0x20\n        /* \"#utility.yul\":926:935   */\n      dup3\n        /* \"#utility.yul\":922:940   */\n      add\n        /* \"#utility.yul\":914:940   */\n      swap1\n      pop\n        /* \"#utility.yul\":986:995   */\n      dup2\n        /* \"#utility.yul\":980:984   */\n      dup2\n        /* \"#utility.yul\":976:996   */\n      sub\n        /* \"#utility.yul\":972:973   */\n      0x00\n        /* \"#utility.yul\":961:970   */\n      dup4\n        /* \"#utility.yul\":957:974   */\n      add\n        /* \"#utility.yul\":950:997   */\n      mstore\n        /* \"#utility.yul\":1014:1145   */\n      tag_29\n        /* \"#utility.yul\":1140:1144   */\n      dup2\n        /* \"#utility.yul\":1014:1145   */\n      tag_21\n      jump\t// in\n    tag_29:\n        /* \"#utility.yul\":1006:1145   */\n      swap1\n      pop\n        /* \"#utility.yul\":733:1152   */\n      swap2\n      swap1\n      pop\n      jump\t// out\n\n    auxdata: 0xa26469706673582212209e0a7b4b32a4d939c6f0beaa4c3a9b29d7890c94d92026c48b890ff3bdd0e04d64736f6c634300081a0033\n}\n",
				"bytecode": {
					"linkReferences": {},
					"object": "6080604052348015600e575f80fd5b5061016b8061001c5f395ff3fe608060405260043610610033575f3560e01c806398d5fdca14610037578063b60d42881461004d578063f36089ec14610057575b5f80fd5b348015610042575f80fd5b5061004b61006d565b005b61005561006f565b005b348015610062575f80fd5b5061006b6100bb565b005b565b670de0b6b3a764000034116100b9576040517f08c379a00000000000000000000000000000000000000000000000000000000081526004016100b090610117565b60405180910390fd5b565b565b5f82825260208201905092915050565b7f6469646e27742073656e7420656e6f75676820455448480000000000000000005f82015250565b5f6101016017836100bd565b915061010c826100cd565b602082019050919050565b5f6020820190508181035f83015261012e816100f5565b905091905056fea26469706673582212209e0a7b4b32a4d939c6f0beaa4c3a9b29d7890c94d92026c48b890ff3bdd0e04d64736f6c634300081a0033",
					"opcodes": "PUSH1 0x80 PUSH1 0x40 MSTORE CALLVALUE DUP1 ISZERO PUSH1 0xE JUMPI PUSH0 DUP1 REVERT JUMPDEST POP PUSH2 0x16B DUP1 PUSH2 0x1C PUSH0 CODECOPY PUSH0 RETURN INVALID PUSH1 0x80 PUSH1 0x40 MSTORE PUSH1 0x4 CALLDATASIZE LT PUSH2 0x33 JUMPI PUSH0 CALLDATALOAD PUSH1 0xE0 SHR DUP1 PUSH4 0x98D5FDCA EQ PUSH2 0x37 JUMPI DUP1 PUSH4 0xB60D4288 EQ PUSH2 0x4D JUMPI DUP1 PUSH4 0xF36089EC EQ PUSH2 0x57 JUMPI JUMPDEST PUSH0 DUP1 REVERT JUMPDEST CALLVALUE DUP1 ISZERO PUSH2 0x42 JUMPI PUSH0 DUP1 REVERT JUMPDEST POP PUSH2 0x4B PUSH2 0x6D JUMP JUMPDEST STOP JUMPDEST PUSH2 0x55 PUSH2 0x6F JUMP JUMPDEST STOP JUMPDEST CALLVALUE DUP1 ISZERO PUSH2 0x62 JUMPI PUSH0 DUP1 REVERT JUMPDEST POP PUSH2 0x6B PUSH2 0xBB JUMP JUMPDEST STOP JUMPDEST JUMP JUMPDEST PUSH8 0xDE0B6B3A7640000 CALLVALUE GT PUSH2 0xB9 JUMPI PUSH1 0x40 MLOAD PUSH32 0x8C379A000000000000000000000000000000000000000000000000000000000 DUP2 MSTORE PUSH1 0x4 ADD PUSH2 0xB0 SWAP1 PUSH2 0x117 JUMP JUMPDEST PUSH1 0x40 MLOAD DUP1 SWAP2 SUB SWAP1 REVERT JUMPDEST JUMP JUMPDEST JUMP JUMPDEST PUSH0 DUP3 DUP3 MSTORE PUSH1 0x20 DUP3 ADD SWAP1 POP SWAP3 SWAP2 POP POP JUMP JUMPDEST PUSH32 0x6469646E27742073656E7420656E6F7567682045544848000000000000000000 PUSH0 DUP3 ADD MSTORE POP JUMP JUMPDEST PUSH0 PUSH2 0x101 PUSH1 0x17 DUP4 PUSH2 0xBD JUMP JUMPDEST SWAP2 POP PUSH2 0x10C DUP3 PUSH2 0xCD JUMP JUMPDEST PUSH1 0x20 DUP3 ADD SWAP1 POP SWAP2 SWAP1 POP JUMP JUMPDEST PUSH0 PUSH1 0x20 DUP3 ADD SWAP1 POP DUP2 DUP2 SUB PUSH0 DUP4 ADD MSTORE PUSH2 0x12E DUP2 PUSH2 0xF5 JUMP JUMPDEST SWAP1 POP SWAP2 SWAP1 POP JUMP INVALID LOG2 PUSH5 0x6970667358 0x22 SLT KECCAK256 SWAP15 EXP PUSH28 0x4B32A4D939C6F0BEAA4C3A9B29D7890C94D92026C48B890FF3BDD0E0 0x4D PUSH5 0x736F6C6343 STOP ADDMOD BYTE STOP CALLER "
				},
				"gasEstimates": {
					"creation": {
						"codeDepositCost": "72600",
						"executionCost": "121",
						"totalCost": "72721"
					},
					"external": {
						"fund()": "425",
						"getConversionRate()": "165",
						"getPrice()": "121"
					}
				},
				"methodIdentifiers": {
					"fund()": "b60d4288",
					"getConversionRate()": "f36089ec",
					"getPrice()": "98d5fdca"
				}
			},
			"storageLayout": {
				"storage": [],
				"types": null
			},
			"userdoc": {
				"kind": "user",
				"methods": {},
				"version": 1
			}
		}
	}
}